:020000040800F2
:10000000000002202512060859930008092B020857
:10001000D5120608D5120608D51206080000000001
:100020000000000000000000000000005DAC0008BF
:100030005FAC00080000000061AC000855400108FA
:10004000D5120608D5120608D5120608D5120608DC
:10005000D5120608D51206080F0801081308010872
:10006000D5120608170801081B0801081D9C000886
:10007000319C0008459C0008599C00086D9C0008B4
:10008000819C0008959C0008D5120608000000001D
:100090000000000000000000000000001F08010830
:1000A000559B00087D9B0008A59B00083F9B00080E
:1000B000CD9B0008E19B0008F59B0008D5120608BF
:1000C000D5120608D5120608D5120608D51206085C
:1000D000D5120608E1950008ED9500080000000023
:1000E00023080108D512060863AC000800000000D0
:1000F000000000000000000000000000A99C0008B3
:1001000000000000D5120608099C0008D512060858
:1001100000000000000000000000000000000000DF
:10012000BD9C0008D19C0008E59C0008F99C0008D3
:100130000D9D00080000000000000000000000000D
:10014000000000000000000000000000B5AC000846
:10015000219D0008359D0008499D0008D51206081C
:10016000D5120608D51206080000000000000000A5
:10017000000000000000000000000000000000007F
:1001800000000000D512060800000000000000007A
:08019000D5120608D51206087D
:08019800B80D06000100000093
:1001A000E01F0120020200000200220000200120C6
:1001B00002090000020022002020012002080000A5
:1001C0000300220040200120010B00000000760007
:1001D00060200120010F0000000076008020012037
:1001E000010C010000007700A02001200113000095
:1001F00000001E00C02001200119000000000D00B9
:10020000E02001200115000000000C000021012069
:10021000012701000000180020210120011F00001B
:10022000000048004021012001200000000049009A
:10023000602101200121000000004A0080210120EE
:100240000122000000004B00A0210120012300003A
:1002500000004C00C02101200124000000004D00DE
:10026000E02101200125000000004E0000220120B5
:100270000126000000004F0020220120012A00007A
:100280000000290040220120012B0100000029006C
:1002900060220120012C010000007000802201205A
:1002A000012D010000005200A0220120012E0100BA
:1002B00000002800C02201200232060000012C00AC
:1002C000E02201200131000000003C000023012059
:0802D0000134000000002000D1
:1080000003899B0746BF0089C0F3C0100120704759
:10801000D0E907239A422FBFD01AC0688018C01A2F
:108020007047D0E9092300699A4238BF1218D31A61
:108030000138C01A7047D0E90902131A5842584152
:108040007047036A41690246C85CD16801338B42BC
:1080500028BF002313627047436A8269D154436A80
:1080600002690133934228BF0023426B4362D36805
:1080700043F08003D3607047436B188810F0100002
:108080001EBF1A889B8801207047436B99891A8804
:10809000890610B592B2044607D5900605D5E26A66
:1080A00022B39888216B80B29047636B99891A88B4
:1080B000090692B20FD510060DD5D4E909128A42ED
:1080C00022D0A169895C998021690132B2FBF1F06B
:1080D00001FB1022A262998A1A88C90592B204D5BE
:1080E000D20744BF4FF6F7721A8010BD9B88E26931
:1080F0006169DBB28B54E369E2680133B3FBF2F1EF
:1081000002FB1133E361D0E7DA6822F08002DA6023
:10811000E1E7036941681F2B30B54FF0200285BFAE
:10812000A3F120054C680C68AA4098BF9A402242EF
:108130001ED0826900201074D0688468206820F006
:10814000010020605468206865790A4C828934F8FF
:10815000154092B21F2B22EA0402828188BF203B85
:108160004FF020028BBF9A4002FA03F3CA608B6083
:1081700030BD00BFD06B06080E4BDA68D20310D4B6
:10818000DA68D1060FD4DA68D2050ED4DA6812F0B4
:10819000E00F0CD1DB6813F0020F14BF0820092098
:1081A0007047012070470620704702207047072063
:1081B000704700BF003C024007B509238DF8073027
:1081C000FFF7DAFF8DF807009DF80730012BF7D095
:1081D0009DF8070003B05DF804FB838A028B9BB215
:1081E00043EA024331EA03030CBF01200020704739
:1081F00082B0002301930093012300900193019B1F
:1082000063B1009A21F07F4314320092009A126801
:108210001A4214BF0120002002B07047009A1832A1
:10822000F3E77047704701207047044BD3E9000320
:10823000984288BF03F50063181A7047C8160020DB
:10824000054AD2E900318B42FDD0D1180133C3F386
:108250000A03087A13607047C8160020044BD3F84D
:10826000080820B1D3F80808431F58425841704706
:10827000C8160020012380F84930704710B5D0F8A7
:10828000E83504461B699847032384F8123100201F
:1082900010BD08B590F8123180F81331042380F82E
:1082A0001231D0F8E835DB689847002008BD08B5E2
:1082B000D0F8E435DB6903B19847002008BD08B564
:1082C000D0F8E4351B6A9847002008BD08B5D0F8FF
:1082D000E4355B6A9847002008BD30B501380024BA
:1082E00023460134055D002DFAD1DBB201335B007A
:1082F00013800B7003234B70022310F8014F04B955
:1083000030BD5A1CD2B2CC5402338D54DBB2F4E7E8
:1083100010B5074C2068FF2808D00649D1F80C2872
:1083200001F5016100F070F8FF232360002010BD0B
:1083300000000020C8160020432301480B8070472E
:1083400004000020122301480B80704747000020E2
:10835000042301480B8070475900002008B50A46E5
:1083600002490348FFF7B9FF084608BDE01E002098
:10837000F4FC060808B50A4602490348FFF7ADFFBA
:10838000084608BDE01E002004FD060808B50A46A0
:1083900002490348FFF7A1FF084608BDE01E002080
:1083A00009FD060808B50A4602490348FFF795FF8C
:1083B000084608BDE01E002013FD060808B50A4661
:1083C00002490348FFF789FF084608BDE01E002068
:1083D0001EFD06087047704770477047704770472A
:1083E000044B00200522C3F80828C3F81809C3F875
:1083F0001C097047C8160020024B0020C3F808086B
:10840000704700BFC8160020212838B50C461BD085
:1084100022282BD0202815D1A1B1072A12D11A4D1C
:10842000D5F81C3913B10968002098472368C5F8AE
:108430002039237985F82439637985F82539A3799A
:1084400085F82639002038BD0029FBD0072AF9D14C
:108450000D4BD3F820290A6093F824290A7193F868
:1084600025294A7193F826398B71EBE70029E9D069
:10847000022AE7D1044BD3F81839002BE2D009883F
:1084800000209847DEE700BFC8160020074AD2F850
:108490002839D2F82C29934203F1FF338CBF0020F6
:1084A00001209B1A03EBC020704700BFC8160020B4
:1084B000ECE730B50F4CD4E900239A4286BF03F5B0
:1084C0000065AA1A9A1A0A44B2F5006F10D801443E
:1084D0000022814203D102B16360002030BDE21866
:1084E00010F8015B15720133C3F30A030122F0E7B0
:1084F0000220F3E7C8160020034B93F85409003814
:1085000018BF0120704700BFC8160020034B93F826
:108510005409032894BF002001207047C81600208A
:108520000048704720200020837B042B0DD0074B90
:10853000D3F898200132C3F8982042600422827355
:10854000D3F89C200132C3F89C207047945000203F
:10855000202301480B8070475D0000201223014852
:108560000B8070477D000020042301480B8070477A
:108570008F0000200A4608B5044920B90448FFF7D7
:10858000ACFE024808BD0348F9E700BF50200020B8
:108590002CFD060844FD060808B50A4602490348B2
:1085A000FFF79BFE084608BD502000205CFD060832
:1085B00008B50A4602490348FFF78FFE084608BD82
:1085C000502000206FFD060808B50A4602490348FE
:1085D000FFF783FE084608BD502000207AFD0608FC
:1085E000002370B54D1C1E46040FB0F1204F34BF60
:1085F0003034373401F8134005F813600133DCB22E
:10860000A2424FEA0010EFD870BD1A2310B50B80BC
:10861000094BD3F8E807D3F8EC2780180AD0D3F831
:10862000EA4706490822FFF7DBFF04221031204603
:10863000FFF7D6FF024810BD00F0FF1F9500002095
:108640009300002000207047002070472DE9F34779
:10865000038A8689B6B205460C461E404FF0004993
:1086600001F14C0701F1340816B902B0BDE8F087FA
:10867000B6FA86F329FA03F2D24391B22982164060
:108680001B3B002C40D0042BEED8DFE803F039343C
:108690002E280300E368D5F82CA02BB19B681BB1F2
:1086A0001FFA8AF1201D9847636A33B19B6823B192
:1086B0001FFA8AF104F11C009847E36B2BB19B6809
:1086C0001BB11FFA8AF140469847636D002BCBD04F
:1086D0009B68002BC8D01FFA8AF1384603E0E36894
:1086E000696B5B68201D9847BEE7636AA96B5B688E
:1086F00004F11C00F7E7E36BE96B5B684046F2E7C7
:10870000636D296C5B68E8E7042B06D8DFE803F0AB
:108710000D0B09070300EB6A0193019BA4E76B6B48
:10872000FAE7AB6BF8E7EB6BF6E72B6CF4E790F846
:108730004820531C0244DBB280F8483082F83410E1
:1087400090F849200AB1132B01D957F03BBC704770
:10875000002280F8492057F035BC70B50F4E96F8CE
:10876000873A002BFBD104464518AC4201D10020CA
:1087700070BDD6F82C3914F8011BF2180133C3F37D
:108780000A0382F8881AC6F82C39FFF77FFE002802
:10879000EBD101200BF0F9FCF7E700BFC816002071
:1087A00038B50C461146FFF759FD48B1054D002A72
:1087B000D5F8903104DD2046FFF7CFFFD5F8903192
:1087C00038BD00BFC0270020F0B590F8CF5590F815
:1087D000CE1590F8D12590F8D03590F8CC7590F85A
:1087E000CDC501EB05218DB203EB022390F8D31523
:1087F00090F8D22585B002EB012207F01F06012177
:1088000092B29BB28E4204468DF808708DF809C072
:10881000ADF80A50ADF80C30ADF80E20C0F840218C
:1088200080F8111100F00C81022E00F01D81002E45
:1088300040F09B81BCF1090F5ED8DFE81CF0B60068
:10884000F4005D00C8005D0057000A005D00A9004B
:1088500076002E0A022EADF806200BD0032E25D06E
:10886000012E49D1D0F8EC351B68A0780DF1060136
:10887000984709E0D0F8E43580789B6A0DF106014D
:1088800098474670C4F8F005BDF80620002A47D086
:10889000BDF80E30002B43D09A4228BF1A46ADF8DF
:1088A00006200146204656F0ADFE39E0E9B2052922
:1088B00022D8DFE801F003070B0F1317D0F8EC35CF
:1088C0005B68D2E7D0F8EC359B68CEE7D0F8EC35A2
:1088D000DB68CAE7D0F8EC351B69C6E7D0F8EC35A1
:1088E0005B69C2E7D0F8EC359B69BEE71A4303D158
:1088F00090F81231032B03D1204656F0AFFD0FE064
:10890000016905F07F0680F814610B6865F30A12AF
:108910001A430A6056F08AFE2EB1022384F81231FF
:10892000002005B0F0BD0123F8E7E9B2904D012920
:1089300085F89411E0D890F81231022B0FD0032B58
:10894000DAD1C1B9022380F81231D0F8E43580F8C9
:1089500010115B689847204656F068FEE0E7002952
:10896000F9D00121032380F8101180F8123120463C
:1089700056F036FDEFE790F810110129EBD0D0F852
:10898000E4355B68984795F8941184F81011EEE788
:10899000012AB1D190F81231022B04D0032BABD1B4
:1089A00000F588717EE773497CE790F81231023B4D
:1089B000012BA1D86E4B0022C3F89C21D0F81821BE
:1089C00012B10222C3F89C216B4902226AE7012DF1
:1089D00008D1C0F81851D4F8E43502A99B682046A4
:1089E0009847B8E7022D9BD1DAB2002A98D10269E4
:1089F0001B0A023B5268032B03D8DFE803F00C0E7E
:108A00001012012363F30612594BC3F8A02101236E
:108A100084F816319FE70223F4E70323F2E70423E7
:108A2000F0E70523EEE790F81231023B012B3FF609
:108A300063AF012D7FF474AF0023C0F81831CAE78B
:108A400090F81221032A7FF457AFDBB2012B3FF6D7
:108A500053AFD0F8E43502A99B689847BDF80E30B3
:108A6000002B7FF45DAF76E707F06007202FD9B2C7
:108A700005D1D0F8E43502A99B68984750E7BCF1CE
:108A8000010F31D0BCF1030F1ED0BCF1000F7FF4F9
:108A900047AF90F81221022A5AD0032A7FF42CAF54
:108AA00013F0800F4FF02802314B59D001F07F01B5
:108AB00002FB010191F81E21002A4FD00122C3F8C8
:108AC000A4212E490222EDE690F81231022B3FD06C
:108AD000032B7FF411AF002D7FF47DAF4A063FF4E6
:108AE0007AAF56F089FC76E790F81221022A2FD04F
:108AF000032A7FF401AF002D7FF412AF11F07F0045
:108B00003FF429AF5BB2002B4FF02802B5BF02FB48
:108B1000004102FB014101F58E7101F55D710022FA
:108B2000DB0F08708A704B7004EB8000C9786BB162
:108B30008269136802396FF3555301298CBFC3F35F
:108B40000071012161F31C73136044E7426DF0E78B
:108B50004B063FF4E5AE56F04FFCE1E60022AEE7EF
:108B600002FB010191F87623A6E707F08001F2E706
:108B7000C0270020582900205C29002064290020FB
:108B800010B5044671BB90F81131032B1BD1D0F8FE
:108B90009023D0F87C339A4217D9C178012908BFB5
:108BA000D0F88013A2EB030204BFC918C0F88013E9
:108BB000934228BF1346C0F890239BB2D0F880237D
:108BC000002156F0E3FD002010BDD0F8E4351B690C
:108BD00023B190F81221032A00D19847204656F07D
:108BE00025FDF0E7D0F8E4359B69002BEBD090F839
:108BF0001221032AE7D19847E5E770B50A7812F009
:108C0000600406460D462AD0202C2FD1CC884B7804
:108C1000FCB112060CD51F4922461846FFF7F4FB9B
:108C2000EA881C49304656F0EDFC0024204670BD11
:108C3000194A1360194A0323C2F80C4880F811310D
:108C4000C0E9E444234602F50162002156F09EFD8E
:108C5000EBE7022211441846FFF7D6FBE6E74B7814
:108C60000A2B08D00B2B0BD0062BDFD1304656F049
:108C7000F5FB0224DAE70A49012256F0C3FCD5E7E6
:108C80008B781BB9074BC3F8A841CFE756F0E6FB3A
:108C9000CCE700BFD81E002000000020C81600202E
:108CA00068290020C027002010B5282303FB0101FC
:108CB000074AB1F88C1304461046FFF7FAFB20462A
:108CC000034A4023012156F061FD002010BD00BF82
:108CD0006C29002070B50F4DD5F8F431044643B12E
:108CE00095F8F82195F80C32134302D1012156F082
:108CF00083FB8121204656F07FFB95F80C32022B36
:108D000007D12046044ABDE870401F23012156F0D8
:108D10003DBD70BDC0270020AC290020002310B548
:108D200019460446402256F0D0FB402280212046BE
:108D3000002356F0CAFB012384F81231D4F8E83539
:108D4000A0785B689847002010BD38B540220446E3
:108D50000223812156F0B9FB204602234022012143
:108D600056F0B3FB204603230822822156F0ADFBC8
:108D7000084B0222002583F84B2083F84C50FFF764
:108D80002FFB01212046044A402356F0FFFC2846D1
:108D900038BD00BF000000206C29002010B58121E3
:108DA000044656F069FB2046012156F065FB20463B
:108DB000822156F061FBFFF71FFB002010BD10B5AC
:108DC0008121044656F058FB2046012156F054FB01
:108DD000024B002083F80D0210BD00BFC027002009
:108DE00038B5264C94F8872A012A034633D1244803
:108DF000D0F810221AB984F8872A002038BD402AFA
:108E0000D4F8281919D9403A01F14005C0F81022C8
:108E1000C4F8285940221B4810FA81F1C3E95411C3
:108E200040F201100021C3E95621A3F8440103F5E3
:108E3000A271184656F011FCDFE702EB0105C4F8F9
:108E400028594FF00005C0F810520ABF022092B214
:108E500084F8870ADFE7022ACFD1002540F2011209
:108E6000C0E95455C0E95655A0F8442100F5A27157
:108E700056F0F3FB84F8875ABFE700BFC8160020FE
:108E8000C02700205021002038B52A4CD4F81432D5
:108E90000F2B03F1010203D0C4F81422002038BDC7
:108EA000254A0023C4F8143292F8873A002BF5D1F2
:108EB000D2F82819B1F5006F08BFC2F82839D2F8E6
:108EC0002819D2F82C39994203D1002382F8873A25
:108ED000E4E78CBFC1F500635B1A402B1BD9403B14
:108EE00001F14005C4F81032012382F8873AC2F834
:108EF00028594023114A12FA81F140F20112A0F8D8
:108F000044210022C0E95411C0E9563200F5A27193
:108F100056F0A3FBC2E701EB0305C2F828594FF056
:108F20000005C4F810520EBF022401249BB282F83F
:108F3000874ADFE7C0270020C81600205021002004
:108F4000064BD3F884391A79022A05D19A68920718
:108F500002D5586955F068BF704700BFC816002099
:108F600008B5104A1049D2F88439187902280BD074
:108F7000D2F884090379022B13D183689B0710D59B
:108F8000BDE8084008F014B893F91030142000FB35
:108F90000313D3F8B000FFF733F80028E8D000BF80
:108FA000E1E708BDC81600200000002073B50A4E96
:108FB000441C0025D6F88409012300220DF1070185
:108FC00057F043F89DF80700FF2802D10135A5426C
:108FD000F0D102B070BD00BFC816002037B50446FE
:108FE00008200191FFF7E2FFFF2813D0FE2813D1DC
:108FF0000A4D019BD5F884090022214657F025F837
:109000000022D5F884090223114657F01EF80020EB
:1090100003B030BD0120FBE70220F9E7C8160020AD
:1090200037B5124D4FF6FF530024D5F88409ADF83B
:10903000043001AA02232146C5F8504957F005F82B
:109040000120FFF7B3FFFF2805D1042385F8543929
:10905000022003B030BD092385F85439044BD3F8FE
:109060009031C5F844392046F3E700BFC816002008
:10907000C027002013B540F040038DF800300B0EE0
:109080008DF801300B0C8DF802300B0A8DF803308F
:10909000952304468DF804108DF8053056F0FAFF3C
:1090A00000B964B907480623D0F884096A4600214C
:1090B00056F0CBFF0820FFF779FF02B010BDFF206C
:1090C000FBE700BFC81600202DE9F041194C1E46F1
:1090D00094F85439042B0546884617461CD1FFF7EF
:1090E0002FFF94F84A3903BB69021120FFF7C2FF32
:1090F000E8B9052384F854390F4BC4F83089D3F804
:109100009031C4F83459C4F83C79C4F84069C4F8C3
:1091100044390120BDE8F081082B01D00020F9E797
:10912000FFF77EFF0228F9D1D9E72946DDE7FFF7EF
:1091300017FFF3E7C8160020C027002038B500222B
:109140000C233221022008F023FF254CC4F88409A7
:1091500010B984F8540938BD002107F08DF94FF497
:109160007A700BF012F8D4F884090379022B04D139
:1091700083689B0701D507F01BFF00221146D4F836
:109180008409184D0A2356F060FF174A1421D4F8B9
:1091900084391879022809D0144BD3F89031C4F8D7
:1091A0004439012384F85439002316E093F9103030
:1091B00001FB0323D3F8B000FEF722FF0028EBD019
:1091C000013DE4D1D4F8840907F02AF994F848392C
:1091D000C4F8845984F85459013384F84839BAE7FB
:1091E000C8160020A186010000000020C027002032
:1091F00038B5134C0023A07BE0B125688D4219D10E
:10920000104C03F581751AB904EB0514A27138BD31
:1092100004F1180101EB43239A4209D1831E5842FD
:10922000584104EB051455F0E9FF0123A371EEE763
:109230000020F6E70133082B04F11004DBD1E6E748
:10924000AC50002094400020174838B5002380F827
:10925000A03000F1180425688D421ED1A57B032D96
:109260001BD1124C03F581754AB904EB0514042394
:10927000A371D0F89C300133C0F89C3038BD04F1A4
:10928000180000EB4320131A5842584104EB051410
:1092900055F0B4FF0123A371F0E70133082B04F16B
:1092A0001004D8D1EAE700BF945000209440002079
:1092B00070B50446144EFFF782FD2046022340227B
:1092C000812156F002F9402201212046022356F066
:1092D000FCF80025D6F8183286F80D521B6886F87F
:1092E0000C5228469847E06856F096FCE068012149
:1092F00056F0A8FC20461F2306F5F672012156F011
:1093000045FA284670BD00BFC02700200E49D1F89D
:10931000883043F47003C1F888300C4B1A68002081
:1093200042F001021A6098601A6822F0847222F4F6
:1093300080321A60064A5A601A6822F480221A6043
:10934000D860044B8B60704700ED00E000380240AD
:10935000103000240000000870472DE9F0414769F3
:1093600006468846002F59D10368C3F30D0515B38F
:10937000D8F800803568FEF71FFF092840F0878085
:10938000444C236923F440732361236943F400733D
:109390002361236943F001032361C5F80080FEF7D0
:1093A0000BFF2369092823F0010323616FD1336880
:1093B0000433336032E0384A934229D302F58042C5
:1093C000934224D302F5804293422AD3334A9342F4
:1093D00029D902F58032934227D902F5003293420F
:1093E00025D902F50032934223D902F50032934287
:1093F00021D902F5003293421FD902F5802293420F
:109400001DD9B3F1016F1CD305200AF0D3FE082546
:10941000FEF7D2FE092816D04FF0FF373846BDE8D8
:10942000F0811025F4E71825F2E72025F0E728253C
:10943000EEE73025ECE73825EAE74025E8E7482560
:10944000E6E75825E4E7134C236923F440732361CE
:10945000236943F400732361236923F0F803236134
:1094600023691D4345F002052561236943F48033D8
:109470002361FEF7A1FE236923F002032361236920
:10948000092823F0F80323613FF472AFC4E76FF0BB
:109490000107C3E7003C024000400008FFFF00084E
:1094A0000028ACBF00F16040064B4FEA0111ACBF91
:1094B00000F5614000F00F00C9B2B4BF195480F844
:1094C0000013704714ED00E02DE9F0479846414B3A
:1094D000914603EB800205469468002C78D028332F
:1094E000636004F13E03A36104F59F73E3614FF4ED
:1094F0008073C4E90433236894F83D00E160A363FA
:1095000004F08EFC064694F8440294F83CA0271D13
:1095100008B153F05BFF94F8450208B153F056FFD1
:10952000D4F840321BB12C4A116B0B43136318F073
:10953000080F2CD00135EDB21EB140F20673F38056
:10954000357218F0100F94F846221AD002213046D6
:1095500008F01AFDD4F8481294F94702FFF7A0FF6B
:1095600094F9473294F84722002B07DB02F01F01E1
:1095700001228A405B09194941F823203846BDE899
:10958000F08718F0200F14BF12213221DFE719F005
:10959000020F0CD06B1CDBB21EB140F20652F280FF
:1095A000337294F846220221304608F0EDFC19F09F
:1095B000010FCFD0504604F033FC0135EDB218B1A5
:1095C00040F20663C380057294F846220221BFE789
:1095D0002746D3E7D06B06080038024000E100E0E0
:1095E0000148FEF752BD00BF040100200148FEF70C
:1095F0004CBD00BF500300207047064A002352F8BC
:109600003310814201D1D8B2704701330E2BF6D10D
:10961000FE207047286C06082DE9F04706460068D2
:10962000FFF7EBFF0D28054608DD1F4A0021052046
:1096300006F04AF800242046BDE8F0871B4F07EBF0
:1096400080094FEA8008D9F81CA2BAF1000F1CD19A
:109650000721642006F006F90446C9F81C0228B95F
:109660000146134A052006F02FF8E4E7642251462C
:109670005DF011FA0F48D9F81C322DB200EBC50588
:10968000C3E90053DB615B63DB6447447179D7F85E
:109690001C42182000FB014300221C46C3E90322A0
:1096A0009E601A750434C6E788FD0608C0270020AE
:1096B000ADFD0608286C0608704770B5002828D054
:1096C0004C684CB9426815685679AB8902229BB246
:1096D000B24023EA0203AB818A683AB943681D6845
:1096E000AB8923F001031B041B0CAB81816044B1E7
:1096F0004468216864798D890223A3402B439BB27F
:109700008B8132B143681A6893899BB243F001039D
:10971000938170BD0B4B30B51A4600241D798542EC
:1097200008D1DD68294203D0142000FB042030BD9D
:109730000029F9D001340C2C03F11403EED10020E0
:10974000F5E700BF9805002038B503681B681C6862
:10975000254B03F5D16393ED007A07EE902AB8EE1E
:10976000477AF8EE677A013987EE270A8DB2DFED86
:109770001F7A30EE270A5AF05DF81D4A2388013817
:10978000944280B29BB212D002F5806294420ED015
:10979000B4F1804F0BD0A2F58032944207D002F58D
:1097A0008062944203D002F58062944202D123F099
:1097B00070039BB20F4A944206D002F58062944235
:1097C0001CBF23F440739BB22380094BE5629C428B
:1097D000208503D003F580639C4201D100232386BA
:1097E0000123A38238BD00BF000000200AD7233C1C
:1097F00000000140001000402DE9F0434568A879C1
:1098000010F0040300F002020BD00020174680463F
:10981000042406466B79032B49D8DFE803F0094A94
:1098200089C990464FF480701F461C460126F1E717
:109830002D682B8C23F001031B041B0C2B84B5F823
:1098400020C0B5F804902B8B23F073031B041B0C72
:1098500043F0600E2CF0020C6E4B4FEA0C4C4FEABA
:109860001C4C48EA06069D421FFA89F94CEA060C90
:1098700003D003F580639D420AD14FF6F3730CEADF
:1098800003033B4329F4407943EA040C40EA090905
:10989000A5F80490A5F818E06963A5F820C02B8B03
:1098A00023F008031B041B0C43F008032B83BDE8C3
:1098B000F0832D682B8C23F010031B041B0C2B84CE
:1098C0002A8CB5F804E0B5F818C0524B2CF4E64CDD
:1098D00022F020024FEA0C4C12044FEA1C4C120CEE
:1098E00048EA06069D421FFA8EFE4CF4C04C42EA3E
:1098F000061203D003F580639D420BD122F0800253
:1099000042EA071222F040022EF4406E42EA0412AC
:109910004EEA800EA5F804E0A5F818C0A9632A84D1
:109920002B8B23F400631B041B0C43F40063BDE783
:109930002D682B8C23F480731B041B0C2B842A8C26
:10994000B5F804E0B5F81CC022F400732CF0730CD9
:10995000304A4FEA0C4C1B044FEA1C4C1B0C48EAE3
:10996000060695421FFA8EFE4CF0600C43EA062371
:1099700003D002F5806295420BD123F4006343EAE1
:10998000072323F480632EF4405E43EA04234EEA67
:10999000001EA5F804E0A5F81CC0E9632B84AB8B7E
:1099A00023F008031B041B0C43F00803AB837EE782
:1099B0002C68238C23F480531B041B0C2384258CDC
:1099C000A288A38B25F400552D0448EA06062D0C29
:1099D00023F4E64345EA06350E4E1B041B0CB44245
:1099E00092B243F4C04303D006F58066B44203D17B
:1099F00022F4804242EA8012A280A383216425845B
:109A0000A38B23F400631B041B0C43F40063A383A8
:109A10004DE700BF0000014043685A79032A0FD880
:109A2000DFE802F00205080B186834307047186848
:109A30003830704718683C307047186840307047BD
:109A40000020704710B543681A685879084B0344E2
:109A5000012093F8C840138CA0409BB223EA000376
:109A60001384138CA140194389B2118410BD00BF27
:109A7000D06B0608F0B5EFF31184102383F312883E
:109A8000C5684668AA68136823F00103136032684A
:109A90007779104E938936F817609BB223EA060354
:109AA00093812A696D681F2A4FF0200385BF203AF1
:109AB00093409340EB6098BFAB60E3B283F31188AF
:109AC000C3689B6859601A6842F001021A6001235A
:109AD0000374F0BDD06B06080268137D012B04BF30
:109AE0000223137592F82C100CBF4FF4007300235F
:109AF000012904BF022182F82C1092F8441008BFFB
:109B000043F48063012904BF022182F8441092F8D3
:109B10005C1008BF43F4006301290DD1022182F8D3
:109B20005C1043F480534268116800224A628A89BB
:109B300092B213438B8101E0002BF4D17047034BA9
:109B40000348D3F81C12FEF781BD00BFC0270020D8
:109B50000000014010B5064C0648D4F81C12FEF770
:109B600075FDD4F83C120448BDE81040FEF76EBD08
:109B7000C0270020000001400040014010B5064C05
:109B80000648D4F81C12FEF761FDD4F840120448D0
:109B9000BDE81040FEF75ABDC0270020000001407C
:109BA0000044014010B5064C0648D4F81C12FEF7DC
:109BB0004DFDD4F844120448BDE81040FEF746BD00
:109BC000C02700200000014000480140034B4FF037
:109BD0008040D3F82012FEF739BD00BFC027002017
:109BE000024B0348D3F82412FEF730BDC0270020F3
:109BF00000040040024B0348D3F82812FEF726BDAC
:109C0000C027002000080040024B0348D3F82C1264
:109C1000FEF71CBDC0270020000C00400348D0F810
:109C2000983613B100F28C6018477047000000208E
:109C30000348D0F8B83613B100F2AC60184770474B
:109C4000000000200348D0F8D83613B100F2CC60F1
:109C500018477047000000200348D0F8F83613B1C9
:109C600000F2EC6018477047000000200348D0F86D
:109C7000183713B100F20C7018477047000000202D
:109C80000348D0F8383713B100F22C7018477047EA
:109C9000000000200348D0F8583713B100F24C7090
:109CA00018477047000000200348D0F8783713B1F8
:109CB00000F26C7018477047000000200348D0F88D
:109CC000983713B100F28C701847704700000020DD
:109CD0000348D0F8B83713B100F2AC70184770479A
:109CE000000000200348D0F8D83713B100F2CC7040
:109CF00018477047000000200348D0F8F83713B128
:109D000000F2EC7018477047000000200348D0F8BC
:109D1000183813B100F60C001847704700000020F7
:109D20000348D0F8383813B100F62C0018477047B4
:109D3000000000200348D0F8583813B100F64C005A
:109D400018477047000000200348D0F8783813B156
:109D500000F66C001847704700000020036823F0ED
:109D6000010303600023036043608360C3600361F9
:109D7000212343612A4B984203D13D2243F8082C0A
:109D80007047284B984204D14FF4746243F8202C5A
:109D90007047254B984204D14FF4741243F8382C85
:109DA0007047224B984204D14FF0746243F8502C14
:109DB00070471F4B984203D11E4A43F8642C7047EA
:109DC0001D4B984203D11D4A43F87C2C70471C4B15
:109DD000984203D11B4A43F8942C70471A4B98427F
:109DE00004D14FF03D5243F8AC2C17E0174B98428A
:109DF000C3D0174B9842C7D0164B9842CCD0164BC5
:109E00009842D1D0154B9842D6D0154B9842DAD013
:109E1000144B9842DED0144B9842E2D0704700BFFA
:109E200010600240286002404060024058600240DA
:109E3000706002403D00002088600240400F00201A
:109E4000A060024000003D20B86002401064024063
:109E5000286402404064024058640240706402403A
:109E600088640240A0640240B86402402DE9F041D9
:109E70000022012603250B6806FA02FC3CEA0303D4
:109E800031D10368540005FA04FE23EA0E0303608F
:109E90000B79D0F800806FEA0E0703FA04FE013B4D
:109EA0004EEA080E012BC0F800E011D883681F406D
:109EB00087604B798768A3403B438360436823EA0C
:109EC0000C0343608B79476893409BB23B434360EC
:109ED000C36805FA04F723EA0703C360CB79C768B0
:109EE000A3403B43C3600132102AC4D1BDE8F081D6
:109EF000204A936803F00C03042B10B520D0082BE4
:109F000020D01D4B1B4C0360A3681C4AC3F30313F2
:109F1000134493F88C180368CB404360A168C1F3E5
:109F20008221114491F88C1823FA01F18160A16813
:109F3000C1F342310A4492F88C28D340C36010BD6B
:109F40000F4BDFE75368516813F4800F01F03F01B6
:109F5000536814BF0A4A084AB2FBF1F1054A526835
:109F6000C2F30142C3F3881301324B435200B3FBE7
:109F7000F2F3C7E7003802400024F400000000209C
:109F800000366E01F0B5446B8668A38923F4005354
:109F90001B041B0CA3818279278A0546BFB21003DC
:109FA00012F0040F4FEA022100F400506A7927F4FE
:109FB000405740EA0700208214BF4FF4805C4FF006
:109FC000000C12F0010F0CBF002304239207A2899A
:109FD00022F4B05201F4806122F00C0248BF43F039
:109FE000080341EA0C0112040B43120C1A43A2812C
:109FF000A38A23F440731B041B0C85B0A38268461C
:10A00000FFF776FF214B9C4203D003F580639C420F
:10A010003AD1039BA2891921170401FB03F34FF0E6
:10A0200064014CBF7600B600B3FBF6F3B3FBF1F06E
:10A0300001FB10330201A08900044BBFDB001B01B0
:10A04000323332334BBFB3FBF1F3B3FBF1F303F025
:10A05000070303F00F0313439BB223816A6BAB79B1
:10A0600013F0080F938A0BBF23F008039BB21B0465
:10A0700043F0080308BF1B0C938293899BB243F4FF
:10A080000053938105B0F0BD029BC3E7001001406F
:10A090002DE9F8431E46204B9DF820509DF8247072
:10A0A0009842894690462CD13B462A4631460020AC
:10A0B000FFF70AFA04460020C4E90700C4E90900D2
:10A0C000C4E90B986571A660A7712046FFF75AFF97
:10A0D000EA0707D5636B4FF6DF721A80DA6842F041
:10A0E0002002DA60626BAB0742BFD36843F08003A3
:10A0F000D36093899BB243F4005393812046BDE81B
:10A10000F883064B984204D13B462A46314601204B
:10A11000CEE70024F2E700BF0010014000440040F9
:10A1200081602FE741712DE72DE9F043654F07EB83
:10A13000C00985B005464FEAC00899F8A00803F0A9
:10A140006FFE064699F8A10803F06AFE044699F8E6
:10A15000A20853F03BF96B1CDBB21EB140F60B12A8
:10A16000F28033721CB140F60B22E280237204228B
:10A170003A21304607F008FF204604223A2107F032
:10A1800003FF07EB0803D3F89C484F4B9C4263D175
:10A1900003F5F2331A6A42F400121A621A6A22F4C0
:10A1A00000121A62474497F8A338022B6ED0032B93
:10A1B0006ED0464E464A012B08BF1646A78827F0A8
:10A1C0003F0768463F04FFF793FE3F0C029A414B5E
:10A1D000B2FBF3F398B20743A780218821F0010175
:10A1E0000904090C21803C498E4253D13B4BB2FB00
:10A1F000F3F2013092B2042A80B238BF04222084E4
:10A20000A28323889BB243F001032380238823F495
:10A21000816323F002031B041B0C43F4806323803F
:10A220004FF480432381238823F080031B041B0CFD
:10A23000238023889BB243F001032380284B03EB48
:10A240004513012283F85922002283F8585283F8DB
:10A250005A2205B0BDE8F083224B9C4209D103F598
:10A26000F0331A6A42F480021A621A6A22F48002F7
:10A2700097E71D4B9C4295D103F5EE331A6A42F4E1
:10A2800000021A621A6A22F400028AE7124E95E767
:10A29000124E93E706EB4606B2FBF6F291B2C2F31A
:10A2A0000B020AB941F0010141F400424FF49671EA
:10A2B0004B434FF47A71B3FBF1F301339BB2238428
:10A2C0009EE700BF0000002000540040801A0600F6
:10A2D00000350C0040420F00A0860100400D030035
:10A2E000C027002000580040005C00402DE9F047E6
:10A2F000B74D460105EB401909F008FF99F95822BE
:10A30000B44B8846D10003EBC2020746D2F89C4802
:10A3100099F85A22013A142A00F28380DFE812F0F9
:10A32000790089009F00B700C200CC00D500EA0088
:10A33000F5000A01150164017D01A301060217025F
:10A34000290232024302670215005F184FF0090A22
:10A3500097F8A00803F064FD044697F8A10803F0FD
:10A360005FFDB5F8B83201339BB207462046A5F829
:10A37000B83206F018FE384606F015FE11212046C8
:10A3800007F05CFC1121384607F058FC4FF06508D7
:10A3900003E00520002109F0E7FE204606F0F2FD6B
:10A3A00010B9B8F10108F4D1204607F085FB00216F
:10A3B000052009F0D9FE204606F0F5FD0520002114
:10A3C00009F0D2FEBAF1010AE0D1204607F074FB91
:10A3D0000021052009F0C8FE384607F06DFB00217A
:10A3E000052009F0C1FE204606F0DDFD0520002114
:10A3F00009F0BAFE384606F0D6FDAB1993F95802BB
:10A40000431C01D0FFF790FEAB19002283F85A22BB
:10A4100007E0238813F4007340F02381AA1982F81F
:10A420005A32AB1993F85A32002B7FF465AFBDE86E
:10A43000F087238823F400631B041B0C23802388EC
:10A440009BB243F48063238023889BB243F48073E0
:10A450002380AB19C3E99878032283F85A225E4916
:10A460002046FDF7BAFEAB19002855D093F86A22B2
:10A470005AB993F86B22FF2A04D193F868220AB1E3
:10A480000A22C3E7AB190422C0E70F22BEE7AB19CB
:10A4900093F8692202F0FE022282C3E9987805222D
:10A4A00083F85A224D492046FDF797FE002800F018
:10A4B0007081AB190622A9E7AB1993F86B222282AF
:10A4C000C3E99878072283F85A2245492046FDF7C8
:10A4D00084FE002800F05D81AB19D3F86C223AB9F4
:10A4E000228892B242F400722280C3E998780EE189
:10A4F00008228BE723889BB243F480732380AB1937
:10A50000C3E99878092283F85A2233492046FDF797
:10A5100064FEAB190028B3D1D3E9980142F210725E
:10A52000381A68EB0101904271F10002FFF479AF33
:10A5300015226BE7AB1993F8692242F001022282DF
:10A54000C3E998780B2283F85A2226492046FDF762
:10A5500044FE002800F01D81AA19D2F86C32012BAC
:10A560001AD1238823F480631B041B0C2380EFF390
:10A570001181102383F31288238B23889BB243F429
:10A5800000732380CBB283F311880C2382F85A32F4
:10A59000AB19C3E9987844E7022B15D123889BB205
:10A5A00043F400632380EFF31181102383F31288B7
:10A5B000238B238823F480631B041B0C2380CBB2E2
:10A5C00083F311880D23E1E7238B0E23DEE700BF21
:10A5D000C0270020000000200100030082000700C7
:10A5E000840007000200030086492046FDF700FEB4
:10A5F000AB19002890D0D3F87022511CC3F8701208
:10A60000218A1170D3F86C22013AC3F86C2201221E
:10A61000C3E9987883F87422F8E67B492046FDF771
:10A62000E7FDF0B1EFF31182102383F31288238842
:10A630009BB243F400732380AB19D2B2D3F87012EB
:10A64000481CC3F87002208A087082F31188D3F87E
:10A650007022511CC3F87012218A11706FF0010230
:10A66000D3E7AB1958E768492046FDF7C1FDAB19A0
:10A6700000283FF451AFD3F86C22032A03F5187178
:10A6800030D1228822F480621204120C2280EFF36F
:10A690001180102282F31288D3F8702202F1010C8B
:10A6A000C3F870C2B4F810C082F800C0228892B219
:10A6B00042F400722280C2B282F31188D3F8702271
:10A6C000501CC3F87002208A1070D3F86C22023A32
:10A6D000C3F86C220C2283F85A22C3F86072C1F8C6
:10A6E00004809EE6022A14D8228822F48062120492
:10A6F000120C2280228892B242F400722280228AB6
:10A70000C3F86072002283F87422C1F80480012229
:10A710007CE6D3F87022501CC3F87002208A1070B7
:10A72000D3F86C22013AC3F86C22D6E7238823F4CD
:10A7300080631B041B0C2380AB1993F8692202F081
:10A74000FE022282C3E99878102283F85A222F4908
:10A750002046FDF742FDE0B1AB1993F86B22FF2ACA
:10A7600004D193F868220AB113224FE6AB191122E3
:10A770004CE6AB1993F86B222282C3E99878122237
:10A7800083F85A2222492046FDF727FD08B1AB196C
:10A79000EAE720492046FDF72BFDAB1900283FF4DE
:10A7A000BBAE142232E6AB1903F51870D3F86C2255
:10A7B00082B1D3F87012013A11F801CBA4F810C09D
:10A7C000C3F86C22C3F86072C3F87012C0F804803A
:10A7D00012221BE6228892B242F4007222800122E9
:10A7E000C3F8607283F87422C0F804800EE62388F0
:10A7F0009BB243F4007323804FF6FF33A382AB195F
:10A8000073E600BF40000010040000108200070043
:10A81000840007000004001038B5114C04EB40140C
:10A8200094F85952D5B1C4F86C32049BC4F8703214
:10A83000002384F874320223490084F86B2284F8E0
:10A840005A3201229DF8143084F8691284F86A2281
:10A8500084F86832FFF74AFD94F87452284638BDF0
:10A86000C027002038B5114C04EB401494F859521D
:10A87000CDB1C4F86C32049BC4F870320223490095
:10A8800084F86B2284F85A3200229DF8143084F840
:10A89000691284F86A2284F8742284F86832FFF717
:10A8A00025FD94F87452284638BD00BFC02700200B
:10A8B000F0B587B0002300930193744B1A6842F4FB
:10A8C00080321A601A6802F400320192009A013252
:10A8D0000092019A1AB9009AB2F5A04FF2D11B6802
:10A8E00013F4003318BF01230193019B012B40F0A7
:10A8F000B180664B66491A6C42F080521A640A684D
:10A9000042F440420A609A689A609A689A609A682B
:10A9100042F480529A605F4A5A601A6842F080722C
:10A920001A601A689201FCD55B4A40F2027111600C
:10A930009A6822F003029A609A6842F002029A60D2
:10A94000524A936803F00C03082BFAD19368534CD6
:10A9500003F00C03042B7FD0082B7FD0504BC4F89E
:10A9600088364A4B4F4D9A684F48C2F3031222442F
:10A97000002692F8B418D4F88826CA40C4F888266D
:10A980004A4AEA605A6F4A4AAA605A6B22F0800229
:10A990005A635A6F42F080725A67196B454A0A43EC
:10A9A0001A635A6B5A631A6C42F0875242F4F612D9
:10A9B00042F41F6242F00F021A64596C3E4A0A4385
:10A9C0005A6402A948F2FF73CDE902364FF6FF77C9
:10A9D000FFF74CFA00F580600297FFF747FA00F5A1
:10A9E00080600297FFF742FA00F58060FFF73EFAB9
:10A9F00000F58060FFF73AFA0846FFF779FA029B04
:10AA00002E4AB3FBF2F32E4AC2F8BC32D5F8FC3022
:10AA10002C4A43F08073C5F8FC302B4BC3F8B02FA1
:10AA20005E601A6842F001021A60D4F888364FF46A
:10AA30007A72B3FBF2F3013BB3F1807F08D24FF09F
:10AA4000E0225361F02385F82330072396611361D8
:10AA500007B0F0BD00BFFDE71C4B80E753685168AD
:10AA600013F4800F01F03F01536814BF174A0C4ADA
:10AA7000B2FBF1F1054A5268C2F30142C3F38813F5
:10AA800001324B435200B3FBF2F368E70038024057
:10AA900000700040186C4109003C0240000000209A
:10AAA0000024F40000ED00E0000002400003FA057D
:10AAB000000000081F9067003357070040420F0056
:10AAC000C027002055CEACC5001000E000366E0156
:10AAD00082B000230193054B0193019B03EB80009F
:10AAE0000190019B196002B0704700BF50280040E0
:10AAF00082B000230193054B0193019B03EB80007F
:10AB00000190019B186802B0704700BF50280040B8
:10AB100010B51C2003F084F91121044607F08EF8CB
:10AB2000204606F0C9FFC82009F02FFB2046BDE8EB
:10AB3000104006F038BA436D064A1A61C278012AFD
:10AB400006D100F2CC5058611A684FF080221A608A
:10AB5000704700BF1800086038B5044600296FD15F
:10AB600090F81131022B2AD1D0F83821D0F82411D5
:10AB70008A4232D9C378012B04BFD0F828315B1840
:10AB8000A2EB010208BFC0F828314FF48071D0F861
:10AB90002831C0F83821002592B2A0F81C11C0F865
:10ABA0002C31C0F83451C0F8302100F58E7154F0CA
:10ABB000D7FC2B462A462946204654F0E7FD94F858
:10ABC0001631012B07D1244A2369D2F8A0215A60FB
:10ABD000002384F81631002038BDD0F83C31B3FB97
:10ABE000F1F501FB1535A5B9994212D8D0F84021ED
:10ABF00093420ED24FF48073C0E94A55C0E94C55D8
:10AC0000A0F81C3100F58E7154F0AAFCC4F8405134
:10AC1000CFE7D4F8E435DB682BB194F81221032A8E
:10AC200001D120469847052384F81131002320469E
:10AC30001A46194654F0AAFD2046FFF77CFFBEE7EE
:10AC4000D0F8E4355B69002BC5D090F81221032AB7
:10AC5000C1D19847BFE700BFC027002070477047A9
:10AC6000704710B5114C94F8CA32CBB14FF0E022C6
:10AC7000D2F8103D23F00603C2F8103DFEF746FB64
:10AC800094F8CA3263B1D4F8D0329B68DB0707D599
:10AC9000D4F8CC23136823F0030161F30703136096
:10ACA000034B4FF480225A6110BD00BFC027002023
:10ACB000003C01402DE9F04F974CD4F8CC325A6952
:10ACC000D0078DB000F1A5825A699B6913400193AA
:10ACD00000F09F82C3F307430293019B190311D530
:10ACE000D4F8D032DFF83C929E69DB6904F5307B02
:10ACF0001E40360C04F545774FF00008DA46002E6A
:10AD000040F01681029B5A070FD5D4F8D032834EFB
:10AD10009F69DB691F40BFB2A6F118054FF000091B
:10AD2000A6F53678002F40F04881019B9DF804700D
:10AD3000980741BF784BD3F8CC3202225A61019B6D
:10AD4000002B1BDA744D95F8CA323BB1D5F8CC23F1
:10AD5000136823F0030161F307031360D5F8D022D1
:10AD60006F48536823F0010353606E4BD3F8DC380F
:10AD70009847D5F8CC324FF000425A61019B190533
:10AD8000C3F3072631D5644D00238DF81F3095F8A5
:10AD9000D2338DF81F30634B05F53070D3F8D838B7
:10ADA0009847D5F8CC22D5F8D0324FF400619B6893
:10ADB000516195F8CA22C2B1DA0716D595F8D53394
:10ADC000012B12D19DF81F30032B0ED1D5F8CC33B7
:10ADD0001A6842F001021A601A6842F003021A600F
:10ADE000514A136943F0060313613B070AD54A4DE4
:10ADF0004C4B05F53070D3F8D0389847D5F8CC32A5
:10AE000008225A61FD0615D5434BD3F8CC0282695E
:10AE100022F010028261026AC2F34341022902F069
:10AE20000F0500F08781062900F0AB81836943F0AC
:10AE300010038361F00637D5374DD5F8D022D5F809
:10AE4000CC025368002723F001035360394654F0C5
:10AE5000F9FEB84695F8C1023B4605F53675FF2167
:10AE60008342C0F09C81D4F8D0322D484FF0FF329D
:10AE70009A614FF00112DA610B2262F3070762F365
:10AE800007085F61C3F810801A686FF30A121A602E
:10AE9000FFF751FED4F8CC3221484FF480525A616A
:10AEA000204BD3F8D4389847B10640F194811A4C1E
:10AEB000D4F8D032D4F8D80299680268C1F34101BD
:10AEC000022906BF032161F30A026FF30A0202603E
:10AED0005A6842F480725A6008A8FFF709F8D4F85B
:10AEE000CC12D4F8D002CB68099A6FF38D23CB60D3
:10AEF00085680E48C5F34105284490F8CC00032826
:10AF000040F05481002284F8C2224FF40072A4F869
:10AF1000C422092259E100BFC0270020982A00203E
:10AF2000802A00200000002000ED00E0D06B060821
:10AF3000F2073BD55FFA88F104EB8103D3F81433B1
:10AF40009D68D4F8D0325B691D40EB0720D594F89A
:10AF5000C3023B680125A8429D6007D11869DBF850
:10AF60007C33C0F312001B1ACBF88C33D9F8C438E9
:10AF70005046984794F8C332012B09D1B8F1000F1D
:10AF800006D194F8D133052B02D15046FFF7D3FDFB
:10AF9000A80742BF3B6802259D60290706D5D9F85E
:10AFA000CC38504698473B6808229A6008F101085F
:10AFB000760804370BF1280BA1E6FB0777D5D8F804
:10AFC000D0325FFA89FA1969586B08EB8A0220FAC5
:10AFD0000AFBD2F8D8224FEACB1B92685FFA8BFBB0
:10AFE0004BEA010B0BEA020B1BF0010F1ED05A6B50
:10AFF000A8484FF0010B0BFA09F122EA01025A634B
:10B000003368C3F808B0A44B5146D3F8C838984702
:10B0100098F8C3325B4509D1B9F1000F06D198F811
:10B02000D133042B02D19B48FFF785FD1BF0080F9D
:10B030001EBF33684FF0080BC3F808B01BF0100FA9
:10B040001EBF33684FF0100BC3F808B01BF0400F61
:10B050001EBF33684FF0400BC3F808B01BF0020F5F
:10B060001EBF33684FF0020BC3F808B01BF0800F0F
:10B070001DD0D5E94C329B1AD5F82421D6F800E032
:10B0800098F8C3B2DEF81800934228BF1346033382
:10B09000D8F8D02203920AF1320A9B0808EB8A0AF8
:10B0A00080B2984203D9D5E94C03984205D809F1FA
:10B0B00001097F080436283534E6C01AD5F8243152
:10B0C000984228BF1846C31C9B08BBF1000F1CD038
:10B0D000D5F82811D5F834210144C5F82811D5F840
:10B0E000301102448A42DEF81800C5F83421D7D165
:10B0F000039A95F81C11526B4FF0010C0CFA01F1F8
:10B1000022EA010203994A63CAE7D5F8282104928A
:10B1100082B2DAF8C812033292108C460592594670
:10B12000059A8A42D4D0049A52F82120CCF8002003
:10B130000131F5E747F6F07111423FF477AE28216F
:10B1400001FB0531C2F30A12D71CD3F890E3D1F802
:10B1500040C6BF1000218F420DD1282101FB0533CD
:10B16000D3F840161144C3F84016D3F84C160A44DD
:10B17000C3F84C265AE6DEF800804CF821800131F5
:10B18000E9E7D3F890130F68C3F88C780968C3F81F
:10B190009018282101FB0533C2F30A12E5E755F8A0
:10B1A000042B9160AA6B0133916059E6012084F869
:10B1B000C2024020A4F8C402A0F56400374CA0F5F8
:10B1C00062401044A04227D80E2262F38D23CB6048
:10B1D0004FF400534B61029BDA060BD5304C2E4BDB
:10B1E00004F53070D3F8E0389847D4F8CC324FF4F7
:10B1F00080125A61029B9B060BD5294C264B04F505
:10B200003070D3F8E4389847D4F8CC324FF40012B9
:10B210005A610DB0BDE8F08F224CA2F57400A0F584
:10B220001050A04201D80D22CFE71F481F4C1044F8
:10B23000A04201D20C22C8E71D4CA2F18C70A0F5EF
:10B240004340A04201D80B22BFE71A481A4C1044D1
:10B25000A04201D20A22B8E71848194C1044A04273
:10B26000FFF457AE174CA2F1B770A0F55850A042AA
:10B2700001D20822A9E71448144C1044A04201D27C
:10B280000722A2E712481044124A904234BF062215
:10B2900005229AE7802A0020000000203F420F008C
:10B2A000C0270020DFC810002013FBFE20D61300AB
:10B2B000FF69180000D3CEFE40771B00C05BB3FED1
:10B2C000C091210040AC2700C01D6AFE40E1330060
:10B2D000803C36FEE09C4100034BD3F8800908B166
:10B2E00005F050BE01207047C816002010B5FFF7CA
:10B2F000F3FF0F4C18B9002384F8543910BD94F8AB
:10B300005439032B04D9D4F88409002105F0B4F88A
:10B3100094F848390133DBB2072B84F84839EAD86E
:10B32000044BD3F89031C4F844390123E4E700BF5B
:10B33000C8160020C02700202DE9FF47D14CD4F8C3
:10B340008409002800F0C181CF4DD04E04F5176765
:10B3500094F85439013B082B00F2A081DFE813F088
:10B3600009004100CE009E01BC012D017A019E0121
:10B37000F401FDF7E5FD00210846FDF77BFE804660
:10B38000FDF7EEFDB8F1010F40F088814FF00009A4
:10B3900084F84999FDF7D4FD40F2AB110820FDF780
:10B3A00069FE05280CD184F84989FDF7D9FD94F888
:10B3B0004939002B00F06281022384F85439C7E731
:10B3C0000128F2D10423D4F884094A46694654F08E
:10B3D0003CFE9DF80330AB2B04BF022384F84939AF
:10B3E000E3E7FDF7ADFD94F84939022B0CBF4FF0B0
:10B3F00080484FF0000800213720FDF73BFE414612
:10B400002920FDF737FE8046FDF7AAFDB8F1000FB1
:10B4100040F0448194F84939022B39D1FDF790FD71
:10B4200041463A20FDF726FE042381464246D4F8E1
:10B430008409694654F009FEFDF792FDB9F1000F49
:10B4400002D0FFF753FF83E7009B1BBAC3F380735F
:10B4500084F84A39FDF774FD00210920FDF70AFE42
:10B4600098B910213846FDF7B9FD814668B9012128
:10B470007F2051F017FD0128804606D10221484661
:10B4800051F010FD38B101282CD0FDF769FD05E120
:10B4900084F84A89DEE704212C2051F003FD0321C2
:10B4A00082464E2051F0FEFC0C218146362051F0A0
:10B4B000F9FC09F10202411C01FA02F208FA0AF34E
:10B4C000A2FB03385B0A43EAC853C4F85839FDF7B6
:10B4D00047FDFDF735FD00210A20FDF7CBFD50B9F2
:10B4E00003236AE716213A2051F0DCFC0130800288
:10B4F000C4F85809EBE7FDF733FDA2E710216846D1
:10B50000FDF76CFD002840F0C9809DF8003084F8FC
:10B510005E39BDF801305BBAA4F85C399DF80330A0
:10B5200084F85F399DF8043084F860399DF805305F
:10B5300084F861399DF8063084F862399DF8073047
:10B5400084F863399DF808301A0903F00F0384F872
:10B550006939DDF8093084F868291BBAC4F8643900
:10B560009DF80D309DF80E201B01DBB243EA12134B
:10B5700003F5FA6302F00F02A4F86A3984F86C2923
:10B58000FDF7EEFC94F84A396BB9FDF7D9FC4FF49E
:10B5900000711020FDF76EFD8046FDF7E1FCB8F16B
:10B5A000000F7FF44EAFD4F88409022104F064FF49
:10B5B0000023C4F850390423FFE694F83819D4F86E
:10B5C0003029D4F88409802302EBC112002154F001
:10B5D0003CFD94F838390133DBB2042B84F8383958
:10B5E0005CD1D4F8840902233246002154F02DFDA9
:10B5F0000123D4F884090022694654F026FD9DF801
:10B60000003003F01F03052B14D1072384F85439AD
:10B610001D4BD4F83C59D3F89031C4F84439002D6F
:10B620003CD0D4F84039D4F83029D4F8341901206A
:10B63000A84733E0FFF75AFED4F83C89B8F1000F71
:10B640003FF486AED4F84039D4F8341900220120F2
:10B65000C0477DE654F01EFD00287CD0002384F80E
:10B660004839D4F85039012B12D9013BC4F850396C
:10B67000D4F84C390133C4F84C39082384F85439D0
:10B680000CE000BFC8160020C0270020A06C0608F0
:10B690001ED1FDF7C5FC02283FF4F7AE94F85439EB
:10B6A000013B022B09D8314BD4F84429D3F890310F
:10B6B0009B1AC82B01D9FFF719FE94F854090428E6
:10B6C00052D0A0F108035842584104B0BDE8F087B9
:10B6D000042384F85439D8E6D4F830094FF40071C3
:10B6E000FDF77CFC0128804616D002281BD00028DC
:10B6F000D4D1FDF735FCD4F83C5984F848890423AB
:10B7000084F85439002DC9D0D4F84039D4F8302900
:10B71000D4F8341940468BE7D4F84439D5F8902151
:10B7200064339342BAD2FDF71BFCFFF7DFFDD4F878
:10B730003C89B8F1000F3FF40BAE0022D4F8403939
:10B74000D4F83419104683E754F0A4FC18B1FDF77F
:10B7500007FC042392E7D4F84439D5F89021FA3352
:10B760009342FFF46EAE99E70120AEE7C0270020B8
:10B770002DE9F341284C05460E4690461F4694F8A5
:10B780005439042B0BD0082B07D1D4F84C39AB42D9
:10B7900019D0FDF745FC0228F1D001200EE0FDF79D
:10B7A000CFFB94F84A3963B969021820FDF762FCAF
:10B7B00048B1FDF7D5FBFFF799FD032002B0BDE8C6
:10B7C000F0812946F1E794F85439D4F88409082B1C
:10B7D0000CBFFC23FE23FF228DF804208DF80530DA
:10B7E00001AA0223002154F030FCD4F884098023FC
:10B7F0003246002154F029FC012384F8383906230D
:10B80000C4F83069C4F83459C4F83C89C4F84079A4
:10B8100084F854390020D1E7C816002070B51C4CBC
:10B8200094F85439042B05460E4610D1FDF788FBD9
:10B8300000213720FDF71EFC31461720FDF71AFCCA
:10B8400090B1FDF78DFBFFF751FD032002E0082BBF
:10B8500001D0012070BDD4F84C39834214D0FDF7DB
:10B86000DFFB0228F5D1E1E794F84A3973B96902A0
:10B870001920FDF7FFFB0028E3D1082384F8543991
:10B88000C4F85069C4F84C590220E3E72946EFE7B1
:10B89000C8160020034BD3F8B40808B10369184751
:10B8A000704700BFC0270020002108B5084606F0F9
:10B8B000A9FD094B094A03F50F61C2F8B418D3F882
:10B8C000F0389847FFF7E6FF0028FBD00121002061
:10B8D00006F098FD002008BD00000020C0270020D1
:10B8E00008B5FFF7D7FF80F00100404240B208BD25
:10B8F0002DE9F84F0E460121084617461D4606F071
:10B9000081FDDFF844800024A54206DC00210120EF
:10B9100006F078FD0020BDE8F88F06EB442A04EB22
:10B920000709D8F8B43803B9FEE7D3F804B0002308
:10B930001A4651464846D8470028F2D0FFF7AAFFDA
:10B940000028FBD00134DFE7C02700202DE9F84FA5
:10B950000E460121084615461F4606F053FDDFF846
:10B9600048A00024A74218DD06EB442905EB040893
:10B9700001E0FFF78FFFDAF8B43843B1D3F80CB029
:10B9800000231A4649464046D8470028F1D1FFF720
:10B9900081FF0028FBD00134E4E70021012006F0FC
:10B9A00031FD0020BDE8F88FC0270020034BD3F8FD
:10B9B000B40808B143691847704700BFC02700208A
:10B9C000034BD3F8B40808B183691847704700BF28
:10B9D000C0270020034BD3F8B40808B1C369184747
:10B9E000704700BFC027002038B50D461446FFF74A
:10B9F000F1FF03682B604FF400732360002038BD13
:10BA0000034B1B78032B0CBF80204FF480707047D2
:10BA10009440002008B50B4A68B1816811B1072332
:10BA2000937008BDFFF7ECFFC2E90311C2E9010002
:10BA300011750423F4E702F58051012381F8B43134
:10BA40005370EEE79440002010B502784368022A54
:10BA50000B4A06D1D2E9800100EB410000EB5320F4
:10BA600010BD0169D2F81802D2F81042184002390C
:10BA7000D2F80C32400A04FB01001844F0E700BF82
:10BA800094500020074B1B78022B0BBF030AC0F316
:10BA9000D413C0B200F07F000CBF0B600B601060CD
:10BAA000704700BF9440002090F91A305A1C0AD009
:10BAB00003F58172124B03EB0213DA796FF3000284
:10BAC000DA71FF23837690F91B104B1C16D00C4AB9
:10BAD00001F5817102EB011302EB0112DB79D179DF
:10BAE000C3F34503012B86BF03F1FF3303F03F038C
:10BAF000002363F34601FF23D171C376704700BF73
:10BB00009440002008B5FFF77BFF034BD3F81032B9
:10BB10005843400208BD00BF945000200378022B18
:10BB200009D10D4BD3F820224368B3EB422F2CBF31
:10BB3000012000207047006960B1084B1B78032B7F
:10BB40000EBF074B80B24FF6F773984294BF0020A8
:10BB5000012070470120704794500020944000203D
:10BB6000F7FFFF0FF7B50D464168C1F308032B44FB
:10BB7000B3F5007F044603D22944616001202EE022
:10BB8000FFF792FF0378022B01D16168F4E7164BAF
:10BB9000D3F81022B5EB422F4FEA422721DCD3F82D
:10BBA000183246681E407342AB421ADCAB19BB42E6
:10BBB00010D30169007E01AA53F0F4FB012810D1D3
:10BBC00023696361019B236163683B449B1BED1BFD
:10BBD000636035442046FFF7A1FF0028D5D003B0AD
:10BBE000F0BD0020FBE700BF9450002070B5044674
:10BBF0000E461546FFF7B6FF20B10DB12046A84707
:10BC0000012007E094F82800022320B9C4E90B566C
:10BC100084F8283070BD1846FCE7054A92F8B41144
:10BC2000012309B982F8B431024A5370704700BF4A
:10BC3000945000209440002008B5074BC31A48BF19
:10BC400003F2FF13B3F5805F4FEA632003D3FFF7DE
:10BC5000E4FF4FF0FF3008BDAC4000202DE9F74F66
:10BC600012F0020B0191174600F0D180002840F03D
:10BC7000CE80FFF7D2FF02266EE04FF0FF36DFF8EE
:10BC8000C4C1DFF8ACA1B6463446B1460025DCF8A5
:10BC900000109CF80E8088421BD1B8F1000F00F014
:10BCA0009880D2F89840624E0134C2F8984005F569
:10BCB00081721201B4502C465D4D04F5817805EB7C
:10BCC00008129679042ED4D8DFE806F0315DB05D15
:10BCD0006700B8F1000F26D0B8F1010F14D105F5B7
:10BCE00081780AEB081898F8078018F0010F0BD13B
:10BCF00018F07E0F08D15FEAD81116D1DCF8088061
:10BD0000C14501D9AE46C1460135082D0CF1100CD4
:10BD1000BDD1751C79D1611C5CD1BEF1FF3F00F033
:10BD20008580744656E02E46EEE72C46ECE717F089
:10BD3000010215D03F4BD3F8B438002B76D03E49E2
:10BD40005F683E4A002301EB4421B84700286DD0CC
:10BD500005EB08150223AB71304603B0BDE8F08F48
:10BD600005EB0810FE1090F807C0032B66F3C71C04
:10BD700080F807C02BD94FF6FF72934228BF1346B5
:10BD800005EB08129380BBF1000F06D005EB041001
:10BD900000F580501830FCF7C7FB7A0741BF05EB70
:10BDA0000812D37943F00103D371FB0608D505EBE4
:10BDB0000815EB79C3F34502013262F34603EB71D8
:10BDC0001D4B019A03EB442313600126C4E713467D
:10BDD000D6E72C46164E41F2180506EB041C4CF82B
:10BDE0000500D2F898500135C2F8985041F21C0273
:10BDF0004CF8025004F581724FEA021C06EB021265
:10BE000046F80C500025556056E73446E2E70C4AE8
:10BE1000D2F80862002E3FF430AFD2E9834505FB2B
:10BE20000644A042FFF429AFFFF7F7FE002693E790
:10BE300094400020C0270020AC400020F191000871
:10BE400094500020AC5000207FB50F4D01AA0C4645
:10BE500002A9FFF717FE05F58053029ED3F80002F2
:10BE60000322002303A93044FFF7F8FE012808D17C
:10BE70002978039B019A02290CBF23F8124043F84A
:10BE8000224004B070BD00BF944000202DE9F0476F
:10BE90000D4686B0164604A903AA07462868FFF790
:10BEA000F1FD364A0499D2F8003201EB0308039BF6
:10BEB000013B9C19FFF7A4FD2B68E41A0444A2F58A
:10BEC000805AB4FBF0F408EB04092968B142A9EBED
:10BED000080303D3012006B0BDE8F087039A01935D
:10BEE000FFF78EFD9419641A8442019B28BF044613
:10BEF000002A35D1A04294BF0A220B2205A9404650
:10BF0000FFF7ACFE0128E6D19AF800002A680599EF
:10BF1000039B022802F101022DD1A34222D32B68F8
:10BF2000039A9B1A2344012F2B6014D1B34212D1E0
:10BF300002280BBF04F1004404F1804304F1FF34F4
:10BF400003F1FF330BBF4FF6FF734FF0FF3221F8C1
:10BF5000143041F82320002308F101080393B4E7CB
:10BF60000B22CBE721F8132001330132D5E741F84A
:10BF7000232001330132A342F9D3D0E794500020AB
:10BF80002DE9F04F85B08346FFF73AFD0C46164683
:10BF9000814601AA206802A9FFF774FD0BF1FF3367
:10BFA000012B68D9019B63B94D46DFF8D080BBF106
:10BFB000010F8CBF4FF0000B4FF0010BA8F5805A1A
:10BFC0001BE0FFF72AFE02202AE0D8F87821C2B150
:10BFD000D8F89401884214D1D8F81032013A5902A5
:10BFE00002EB4323B3FBF1F30344B3FBF5F205FB90
:10BFF00012320AB12B449B1A23602168B142E4D368
:10C0000029E0D8F80002029F0023092203A938443E
:10C01000FFF724FE012806D00228D4D00028ECD156
:10C0200005B0BDE8F08F9AF800200399022A07D0E6
:10C03000032AC8D1019B51F8233023F0704302E05A
:10C04000019B31F813302768B3FA83F35B095B4532
:10C0500004D1BE42E4D826600320E1E7019B2B44D3
:10C060002F444B4527600193E0D3029B0133029399
:10C0700000230193C1E7012597E700BF94500020FA
:10C0800037B50446C0690D4698B10023032201A9C3
:10C09000FFF7E4FD012806D1B4F92030002B0ADABD
:10C0A000FFF7BBFD022003B030BDE5255554A26863
:10C0B0000BE00120F7E7019A012D4FEA431102EB53
:10C0C0004313F4D0022DF0D0E268DA612278032A1B
:10C0D00004D100221A775A779A77DA77626A5A83FC
:10C0E000110C9982DFE770B5304D0446042694F8B0
:10C0F0003430052B2CD8DFE803F003243139424BD0
:10C10000D5F8082204F1300102320120FFF738FF90
:10C11000012807D00238C0B2012819D8052384F8B5
:10C120003430E4E7D5F81012E268236BC5F8143216
:10C1300002EB4122E260E26A236102B963620123F9
:10C14000EDE7206B4FF0FF31FFF77EFE012801D0B5
:10C15000002070BDE36A3BB10223E0E7D4E90B01A4
:10C16000FFF772FE0128F3D10323D8E70021204610
:10C17000FFF786FF0128EBD184F83460B7E794F825
:10C180002830082B02D1002384F828300120E0E772
:10C1900094F82830082B04BF002384F82830034B80
:10C1A000012283F8B5210220D3E700BF945000207C
:10C1B0002DE9F743DFF81891044694F83850032D21
:10C1C00000F28180DFE805F002106E772046FFF76D
:10C1D0008AFF012802D184F83800EEE7022873D1E3
:10C1E000032384F83830E8E723786668022B18BF09
:10C1F000D9F81832204618BF1E40FFF725FCC6F3B9
:10C200004F260746361A0023022201A93846FFF7B7
:10C2100025FD06EB070801281FFA88F8054653D1CB
:10C2200001984FF4007200215AF035FCE369FBB12C
:10C230006368EBB9019B4FF020322E211A605A60DF
:10C240001970C3F80720606A5883050C10201A6221
:10C250005A6283F8201083F82110D872C3F827207F
:10C26000E26B9D8222FA00F199865A8783F82B00AF
:10C27000D9F810124B1E984508D24FF40071204691
:10C28000FFF770FC52F0BAFF0137BCE7C1EBC151B8
:10C29000490201F500712046FFF764FC52F0AEFF41
:10C2A00002239EE7002384F82830236C0BB120463C
:10C2B0009847012508E0236C002084F8280003B18A
:10C2C0009847022500E00025284603B0BDE8F0832A
:10C2D00094500020F8B52E4E044600F13007A6F524
:10C2E000B87594F83830032B50D8DFE803F0022EED
:10C2F000363FD5F894212261FFF704FCE368184427
:10C30000E060FFF77DFB1044C5F89401FFF7FAFBEE
:10C31000D5F87831181AC5F87801FFF7F3FBD5F88E
:10C320007C31181AC5F87C012263FFF769FBE36AC8
:10C330001044606323B96262012384F83830D0E787
:10C34000FFF75EFB101A2063F6E700213046FFF787
:10C3500097FE01280ED10223EFE7626B39460120D8
:10C36000FFF794FD012805D10323E6E700212046CD
:10C37000FFF786FE431EDBB2012B06D894F8283067
:10C38000062B04BF002384F82830F8BD0220F1E713
:10C39000045200202DE9F743454D0029044614BFFF
:10C3A0000226002605F5805794F83C30042B71D8FE
:10C3B000DFE803F0290336406300DFF8FC802B78C8
:10C3C000206B032B53D1404594BF4FF000094FF031
:10C3D0000109B9F1000F48D101A950F03FFD012832
:10C3E00063D1206B4946FFF72FFD01285DD1019BEA
:10C3F0002363D7F81422013B934294BFC7F8143249
:10C40000C7F81422DBE731462046FFF739FE012842
:10C41000034648D1626B02B1022384F83C30C3E783
:10C42000626B04F130010020FFF730FD01283AD1A2
:10C430000323F2E7E26AD7F89431C7F894219B1AF4
:10C44000D7F810221B485343D7F8782102EB432238
:10C45000C7F87821D7F87C21002102EB4323C7F8E5
:10C460007C31FFF70DFE01281DD10423D5E71FFA0B
:10C4700080F94FF6F7739945A6E794F82830042B16
:10C4800004BF002384F82830A36B0BB120469847E3
:10C4900001200AE0022094F82830042B05D1002363
:10C4A00084F8283001E00228F5D003B0BDE8F0831D
:10C4B0009440002004520020F7FFFF0F70B503786E
:10C4C000023B012B04461CD8237E990623D4204628
:10C4D000FFF7EAFA237E1A070AD51F4D95F898014F
:10C4E000C31F5842584152F089FE002385F8983105
:10C4F0000023237084F82830E36A5BB1BDE8704004
:10C500001847037E13F0060FDED00121FFF7B8FDB8
:10C510000128D9D070BDE2691049002318014058A4
:10C52000824211D10E4903F5817201EB0213DB79CE
:10C53000C3F34503012B0BD8002301EB0212D17981
:10C5400063F34601D171C2E70133082BE6D1BEE7A0
:10C55000013B03F03F03F0E794500020AC50002073
:10C560009440002010B580B1027872B190F8282074
:10C570006AB9D0E9012494422CBF8460826003220E
:10C5800080F82820C162FFF799FF012010BD00202C
:10C59000FCE7B1F904300F2B2DE9F34104460D46B9
:10C5A00016460BD14FF40071FFF7DCFA18B90020E2
:10C5B00002B0BDE8F0814FF6FF73AB802046FFF775
:10C5C00043FA94F91B20531C074611D01E4B41F22D
:10C5D000180103EB021041588F4230D0FFF71DFBCA
:10C5E0002046FFF79BFA0028E1D00023336024E0C7
:10C5F0002046FFF793FA80460028F1D1381E18BF75
:10C60000012052F0FBFD4346112201A93846FFF7F5
:10C6100025FB0128E4D10198FFF70EFBE076019A93
:10C62000002ADDD0AB8801331BB2AB8002EB431391
:10C6300033602046FFF708FA28600120B8E7183376
:10C6400003EB42230193EAE7944000202DE9F043F5
:10C65000A24E87B00446A6F5DC7594F83030042B62
:10C6600011D8DFE813F0130005005E00EF0036017B
:10C6700004F11C0901AA49463046FFF78AFF012848
:10C680000ED002282FD007B0BDE8F083304650F01E
:10C69000EFFF4FF6FF732384012384F83030DCE78B
:10C6A000019F0FB13B7863B93046FFF7FDF9237E58
:10C6B000DF061BD550F0DCFF4FF6FF732384022307
:10C6C000EBE797F80B8018F0080FD3D10B2204F199
:10C6D000310138465AF02EFA0028CBD1637E88EA21
:10C6E0000303D90604D53046FFF7DEF90423D4E767
:10C6F000BA8A7B8B43EA02436362D5F81022FB6956
:10C70000A3605202B3FBF2F102FB113109B11344F1
:10C710005B1AE36084F819803046FFF7C5F90323FC
:10C72000BBE795F8E031002BADD104F11C080927D7
:10C7300001AA41463046FFF72CFF012875D1019828
:10C74000002853D00378E52B01D0002BF0D1FFF760
:10C7500073FA634901EB0010FBF7E6FE01F5D070B8
:10C76000FFF7A2F92022019800215AF094F9019BC9
:10C77000D4F831201A60D4F835205A60B4F8392042
:10C780001A8194F83B209A72019B627EDA7203A8A8
:10C7900003F078FA00284CD0524B03A9B3F8B8380C
:10C7A000ADF8083002AA084650F0BCFA9DF80E20F9
:10C7B0009DF80F30019943EA4213BDF80C20A2F214
:10C7C000BC7243EA42230B829DF810309DF8112081
:10C7D000DB0243EA42139DF8122043EA5203CB8165
:10C7E000019B1A8A1A83DA89DA8298E795F8B831B8
:10C7F000022B3FF47BAF95F8E031002B7FF476AF4E
:10C80000C5E97D33D5F8CC2185F8F03185F8EC31D8
:10C81000D5F8143285F8E071C5F8E421C5F8E8319F
:10C820003046FFF7C5FC012882D002283FF45EAFF6
:10C8300029E7019B6FF07E021A7447225A7498739D
:10C84000D873CDE7237E9A0608D5E069002311222C
:10C8500002A9FFF703FA01287FF415AF204650F034
:10C8600007FF2269237E8AB91B0708D51E4B93F860
:10C870009821002A7FF407AF072283F8982100232C
:10C8800084F82830E36A20469847FCE603F0F70274
:10C8900013F00403227608D00023E26AA16884F82A
:10C8A00028302046FFF7A2F9EDE6122AE7D1E26A26
:10C8B000A263626A84F83C300421C4E90B22C4E913
:10C8C000023384F8281063636362204650F0D0FE80
:10C8D000D9E60020E36A2070D6E700BF4C52002062
:10C8E000AC500020C0270020945000202DE9F341D7
:10C8F00003780446002B72D090F82830013B082BB7
:10C900006DD8DFE803F0050947594B5E6C6267009C
:10C9100002B0BDE8F04199E6324B4568D3F8107299
:10C92000D3F818327F021D40216B2046FFF7F6F83E
:10C9300005EB01084745064626D880B1D4E9013207
:10C940009A422CBFA260A360002384F82830E36AD7
:10C95000002B44D0204602B0BDE8F04118472169C1
:10C96000207E01AA52F01EFD012838D1236963619F
:10C97000019B236163683B445B1B6360236BDB1B90
:10C980001D4425633546CFE763680028D6D10B44A4
:10C990006360D3E702B0BDE8F0418FE50121FFF706
:10C9A000F9FC01281BD1216C0023204684F8283093
:10C9B00002B0BDE8F041D5E5002102B0BDE8F0418C
:10C9C000E8E402B0BDE8F04184E402B0BDE8F04123
:10C9D000FFF789BB02B0BDE8F041FFF7E9BB02B049
:10C9E000BDE8F081945000202DE9F0414FF0FF3177
:10C9F000304A314C0D460023107804280ED103F53F
:10CA0000817004EB0010C079C70707D46E1C52F880
:10CA10000A0C01D0884201D21D4601460133082B81
:10CA200002F11002E8D16B1C42D0234C234E05F5D5
:10CA3000817704EB0713998849B1D6F8B43833B13C
:10CA400004EB051041F218029B6880589847D6F80D
:10CA5000B4389BB11A4ED3F80C801A4A04EB051C6B
:10CA600041F2180000235CF8000006EB4521C047A6
:10CA700020B1022810D00020BDE8F081124BD3F87D
:10CA80009C2004EB0714013AC3F89C200322A271F6
:10CA9000012283F8A020EEE706F6E87604EB0714FF
:10CAA000D6F89C30013BC6F89C300123A371E2E725
:10CAB0000120E1E7BA50002094400020C027002068
:10CAC000AC400020499200089450002008B5002195
:10CAD0004422104859F0DFFF0F4B03F580501B78BC
:10CAE0004FF6FF72A0F8D221022B4FF0030218BFBD
:10CAF000134680F8B831D0F81C32C0F8DC3110236E
:10CB000080F8D02180F8D13100F5DC7050F0B0FD14
:10CB1000012008BD4C520020944000202DE9FF4721
:10CB2000BB4CDFF8FCA2A378072B00F2B080DFE853
:10CB300013F008003900B100BC00C00052016301CD
:10CB40006C010023092203A91846FFF787F8012882
:10CB500040F09D80039B93F8FE21552A1BD193F84A
:10CB6000FF21AA2A17D103F5DF7203F5FF7390683E
:10CB700070B11179A1F10B05012D05D8A54BC3F8B2
:10CB8000FC010123A370CEE701F0F7010629F5D0DF
:10CB900010329342EBD19F4B022283F8B421012340
:10CBA000637074E09B4D0023D5F8FC01092203A9B2
:10CBB000FFF754F801286AD10022039B2270B3F8D2
:10CBC0000B20B2F5007F45D11A7C022A42D193F89E
:10CBD000FE21552A3ED193F8FF21AA2A3AD1B3F873
:10CBE0000EE0D5F8FC617644C5F8006293F80DC0FC
:10CBF000C5F810C20CF1FF327F2A2BD8CCF100020D
:10CC00003CEA020226D14FEA4C22013AC5F818222A
:10CC1000DF8A07B95F6AC5F80472B3F811004001F2
:10CC200000F2FF104012C5F82002B3F8131001B94A
:10CC3000196A0EEB000202EB47028A1A40F6F47101
:10CC4000B2FBFCF28A424FEA4708C5F8082205D831
:10CC500001232370032385F8B431A0E74FF6F47164
:10CC60008A4289BF032202232270DB6A9CBF2370A1
:10CC70000023C5F81C32064495F8E0314644C5F857
:10CC80000C620BB9FFF722FFA3780133A37004B045
:10CC9000BDE8F0870323A3705F4B00935F496048B2
:10CCA0003023052252F039FAF1E75D48FFF71EFE06
:10CCB000EDE7FEF7A5FEDFF85C910546A9F6FC77E7
:10CCC000A9F6F878207D38B30128FCD1D9F81002F4
:10CCD000636842024FF0FF30B0FBF2F0D9F808224F
:10CCE0001B1802F102024FF000014941934271F119
:10CCF000000138BF1A4641460220FFF741F90328D8
:10CD0000E0D801A353F820F08FCC00084DCD0008E7
:10CD10008FCC00084DCD0008D9F8082239460232E0
:10CD2000FFF72EF90328CDD801A353F820F000BF58
:10CD30008FCC000841CD00088FCC000877CD0008CB
:10CD400063680133A36001232375BBE7D4E90123A2
:10CD50002669991AB14288BFC4E9032103280AD081
:10CD60000133B3FBF5F205FB12320AB12B449B1AD7
:10CD700063600023E8E7216906236529A3707FF635
:10CD8000D2AEA1F164032361FEF73AFE6539404259
:10CD9000014001312161FEF733FE81427FF6C3AECF
:10CDA0001C4FD4F80C80D7F8080201EB08050230BC
:10CDB000A84294BF0020012052F020FA2369D7F83E
:10CDC0001022C7F8948153435B02C7E95E33C4E97C
:10CDD00001850523D6E6A26812490120FFF756F81F
:10CDE000012801D10623CDE602287FF450AF094A7D
:10CDF000012382F8B431D3E600215046FFF740F911
:10CE00000128F1D1A3780133BCE60323C8E600BFB3
:10CE1000944000209450002015BA0008C7FD060871
:10CE2000045200209840002070B5124D124BC5F8F6
:10CE3000BC3840F20112002385F80D32A0F84421DD
:10CE4000C0F85C3105F6BC020D23C0E9542204464B
:10CE500085F8C818C0F8583100F5A27152F0FDFBF2
:10CE600005F5F67220461F23BDE87040012152F0FF
:10CE70008DBC00BFC02700205553425310B5074B4F
:10CE800093F8F911044652F09FFC002804DA20467A
:10CE90000121BDE81040C7E710BD00BFC02700203A
:10CEA000F8B50B7813F0600506460C4638D0202DF7
:10CEB00074D14A78FE2A05D0FF2A1CD052F0CEFA4F
:10CEC00002252BE04D88A5B9CF88012F11D11A0674
:10CED0000FD5334CD4F818329B699847C0B284F808
:10CEE000CC0830B13A4604F6CC01304652F08AFB09
:10CEF00014E03046E2E74A88002AFAD1CD88002DB6
:10CF0000F7D11B06F5D4264A012182F80D5282F88A
:10CF10000C121F2302F5F67252F038FC2846F8BDB9
:10CF20004B780A2B24D00B2B25D0012BF6D194F96A
:10CF300004308988C068002B22DA01F07F0152F0AA
:10CF400081FE2179164F304652F096FA022321795C
:10CF50004022304652F0B9FA97F80C32022B12D127
:10CF60008121304652F048FA002387F80C32D5E789
:10CF70000C490122BAE70A4B4A8883F8CD28CDE74D
:10CF800052F04AFEDDE794F90420002AC6DA012BAC
:10CF9000C4D001213046FFF747FFBFE70025BDE7BA
:10CFA000C02700208D30002008B5084B93F80D32C3
:10CFB000022B07D0033B012B02D80021FFF734FFDF
:10CFC000002008BDFFF75AFFFAE700BFC027002086
:10CFD00070B52F4C94F80D6205461EB1012E54D049
:10CFE000002070BDD4F8F031C4F8C038D4F8F43162
:10CFF000C4F8C438B0F8B4331F2B0DD1D4F8EC21E9
:10D00000244B9A4208D194F8F911012904D894F8D4
:10D01000FA31013B0F2B0AD9202105204FF06CFE7D
:10D02000022384F80C322846FBF754FED8E752F06E
:10D03000CBFB0028F7DB94F80D32013B022BCFD954
:10D04000B4F8CE18E9B1D4F8F43184F8C86899423C
:10D0500028BF1946D4F8C4385B1AC4F8C43804236E
:10D0600084F80D3240F20113A5F844310A4BC5E9AA
:10D070005616C5E9543305F5A271284652F0EDFA6B
:10D08000AEE72846FFF7D0FEAAE7FFF7F7FEA7E7CF
:10D09000C027002055534243943000200000000078
:10D0A0002DE9F74FCDE90012514AD389116856890D
:10D0B000178A1B02C91A93896EEB0E0EA3FB01049B
:10D0C00003FB0E441389C00940EA44601B04C018E6
:10D0D000A6FB013506FB0E55D6884FEA132343EA1B
:10D0E00005634FEAC6364FEAE41444F100049B1985
:10D0F000A7FB012607FB0E664FEAD25242EA462200
:10D100004FEA252545F10005F61512F5FA6C46F1B2
:10D11000000BBCF5FA6F7BF100074CDAA2FB02783A
:10D120004FF0050A02FB06F908EB4909A7FB0A784C
:10D130000AFB09884FEA570949EAC879BF08B0EBEA
:10D14000090047EA887764EB6804DB1B294F65EB2D
:10D15000A805BC454FF0FF377BEB070720DA40F608
:10D16000AC57D21946F100065643A2FB027202EBFD
:10D1700046064FEAC608FA00BA1A48EA577866EB3C
:10D180000808101844EB08044FF00B08A7FB0872BE
:10D1900008FB06267F0847EAC677DB1B65EB6605BA
:10D1A00001FB0EFEA1FB011202EB4E0EC90F41EA7C
:10D1B0004E01BCEB010C009A92B10D4A5169A1FBE2
:10D1C000032301FB0535520D42EAC522121A4FEA2C
:10D1D0006555009B65EB0404D20B42EA44421A6099
:10D1E000019B0BB1C3F800C0012003B0BDE8F08F74
:10D1F000B852002024FAFFFF31B10C4BD3ED067A70
:10D20000F8EEE77AC1ED007A72B1084BDFED086AFB
:10D21000DB69A3F5D543333B07EE903AF8EEE77AA6
:10D2200087EEA67A82ED007A704700BFB8520020E0
:10D230000000C842014B1B6A5B681847B8520020C7
:10D24000024B1B6A08309B68184700BFB852002089
:10D25000007970470079C0F34010704700794009A9
:10D26000704700BF704700BF704700BFD0ED007A25
:10D27000D0ED036A30EE677AE6EE877AB0EE670AA1
:10D28000C0ED007A704700BFD0ED017A80ED021A40
:10D29000F5EE407AF1EE10FA04BF9FED0C7AC7EE7E
:10D2A000207A31EE277A08BFC0ED017AC1EE076A15
:10D2B000D0ED007AC0ED036A30EE677AE6EE877A49
:10D2C000B0EE670AC0ED007A704700BF83F9223ED6
:10D2D0009FED047AC7EE007A77EEA07A80EEA70A77
:10D2E000704700BF72C7D13D00230360436080EDEB
:10D2F000020A704790ED017AD0ED036AD0ED027A10
:10D3000030EE470AA6EE807A90ED000A80ED017AB1
:10D3100037EE676AE6EE867A37EEC07AC0ED027ABB
:10D32000A6EE870A80ED000A704700BFD0ED056ABF
:10D33000D0ED017A90ED007A90ED066AD0ED025AB8
:10D3400090ED035A80ED050A66EEA77AC0ED066AF5
:10D35000E7EE007A90ED077AE5EE867A90ED086ABE
:10D36000D0ED045A80ED087AE5EE477AE5EEC67A0C
:10D37000B0EE670AC0ED077A704700BFD0ED057ABE
:10D3800090ED006A90ED067AD0ED035AE6EE007A51
:10D3900090ED016AF0EE406AA6EE267AB0EE670ADA
:10D3A000D0ED047A90ED026A67EEC07AA5EEC07AFD
:10D3B000E6EE267A80ED057AC0ED067A70470368BE
:10D3C0005A1C02601970704703690133012B036115
:10D3D0001CD0D0ED005AD0ED026A07EE903A30EE44
:10D3E000656AF8EEE77A86EE277A77EE257AB0EE70
:10D3F000667A30EE670AC0ED017AA6EE007AC0EDDB
:10D40000007A80ED037A80ED027A7047002380ED88
:10D41000010A80ED000A8360704703685A1C0260AD
:10D420001970704790F83020034602F0FF0012B1E7
:10D43000002283F8302070474FF480538381704777
:10D440004FF40063838170474FF40063838170471A
:10D4500010B5064A0423002152F8044B844208BF49
:10D4600042F8041C013BF7D110BD00BFDC52002084
:10D470000120704701207047012070472DE9F843D3
:10D480005E4F15467C6B3A8FB7F83E90C2EB241383
:10D490005200C2EBE402B7F93A40624303FB03F4E3
:10D4A000B7F93C3024135C43A41304EBE224B7F92E
:10D4B00042303C650E46A4F5FA3181FB01CE4FEABD
:10D4C000E37803FB0EF20CFB0822A3FB0C3890441C
:10D4D000B7F9402082FB01021B0A120343EA0863EA
:10D4E00042EA105200031B1842EB282202F50042C8
:10D4F000A3FB093809FB02884FEAE8734FEA680288
:10D5000053EA68084FF000006CD0B7F948904FEA32
:10D51000E97809FB0EFE0CFB08EEA9FB0C9CE64427
:10D52000B7F946C08CFB01814FEA414C4FEA4841B4
:10D5300011EB0909796D4CEAD83C4EEB0C0CC1F5A6
:10D54000801E0EF00048B7F9441048EA5E0810EB60
:10D5500009004FEACE7EBEEB00000CEBC10168EB88
:10D56000010C40F63548A0FB080108FB0C1153F0F4
:10D5700073FCB7F94E304FEA613E4FEA503C4CEA3B
:10D58000C14C03FB0EF24FEAE3790CFB0929A3FB24
:10D590000C324A4403FB0EFE0CFB02EEA3FB0C3CD8
:10D5A000B7F94C20E6445B0E43EACE1313EB000CB4
:10D5B000804602FB01F34FEAE27941EB6E6EA2FB7B
:10D5C000082809FB00314144D00C40EA41301CEBF3
:10D5D0000000B7F94A304EEBE141000A40EA016031
:10D5E00000EB03100EB1000A306025B104EB840497
:10D5F000803424122C600120BDE8F883B85200204A
:10D60000084B1868084B10B59C6D001BFA2807D80A
:10D6100009B1D86D08600AB11B6E1360012000E0EB
:10D62000002010BD50290020B8520020034B0022DA
:10D63000C3E91922C3E91B2201207047B852002018
:10D64000084B1A68084B196F521AFA2A9FBF5A6E74
:10D65000C2869A6EDB6E9DBF028743870120002041
:10D66000704700BF50290020B852002090F85F3268
:10D6700030B53BB990F85D1290F85E320124DAB211
:10D68000914200D830BDB0F8665204FA03F22A4342
:10D69000A0F866220133F2E7437913F001031FBFBC
:10D6A000D0E90732C0689B1A00F1FF3014BF184060
:10D6B00018467047437913F002031FBFD0E90932BF
:10D6C00000699B1A00F1FF3014BF98431846704759
:10D6D00010B5437913F0010301460DD0FFF7DCFFCD
:10D6E00060B10A6A4B69C8689B5C0132B2FBF0F416
:10D6F00000FB1422DBB20A62184610BD0346FBE7AA
:10D7000043799B070AD5436A8269D154436A026907
:10D710000133B3FBF2F102FB1133436270474171F5
:10D720007047D0E90920131A584258417047012028
:10D730007047012070470120704701207047012089
:10D7400070470120704700BF704700BF054B03EBD7
:10D75000C00040F2FF739942A8BF1946A0F87810A4
:10D76000704700BFB85200200B4B9FED097B012092
:10D770000021C3E93A01002203F1F000082183ED02
:10D78000367BC3E93810C3F8FC207047AFF3008044
:10D790000000000000000000B8520020184B93F871
:10D7A000062183F80C21032A21D9111F02291AD836
:10D7B000052A10B41DD0062A14BF4FF47A614FF425
:10D7C0007A519FED0D7B00240E480F4AC3F81C418F
:10D7D000B2FBF1F283ED487B5DF8044BC3F8100116
:10D7E000C3F818217047094AC3F810217047084A46
:10D7F000FAE74FF4FA51E4E70000000000000000EF
